:020000040800F2
:10000000C01100244D0A00081D070008390A000825
:10001000390A0008390A0008390A000800000000FF
:10002000000000000000000000000000510B00086C
:10003000390A0008000000001D0B0008791B0008A9
:10004000C10C0008C10C0008C10C0008C10C00085C
:10005000C10C0008C10C0008C10C0008C10C00084C
:10006000C10C0008C10C0008C10C0008C10C00083C
:10007000C10C0008C10C0008C10C0008C10C00082C
:1002AC0053B94AB9002908BF00281CBF4FF0FF31D1
:1002BC004FF0FF3000F00CB8ADF1080C6DE904CE36
:1002CC0000F008F8DDF804E0DDE9022304B0704723
:1002DC00704700BF2DE9F04786468C460846089EBD
:1002EC00154674461946002B40F0C2808542B2FA7E
:1002FC0082F245D94AB1C2F1200300FA02FC2EFA6F
:10030C0003F3954043EA0C0C94404FEA154EA8B207
:10031C00BCFBFEF8230C0EFB18CC08FB00F943EADF
:10032C000C43994528D9EB1808F1FF3704D29945AD
:10033C0002D9A8F102072B44A3EB0903A4B2B3FB27
:10034C00FEFC0EFB1C330CFB00F044EA0344A04201
:10035C0014D92C190CF1FF3304D2A04202D9ACF100
:10036C0002032C44241A43EA07401EB1D440002354
:10037C0034607360BDE8F0874746DDE76346F1E71C
:10038C0092BB431B01214FEA154EAFB2B3FBFEFCEF
:10039C00200C0EFB1C330CFB07F840EA034398457A
:1003AC0062D9EB180CF1FF3004D2984502D9ACF1AC
:1003BC0002002B44A3EB0803A4B2B3FBFEFC0EFB20
:1003CC001C330CFB07F744EA0344A7424ED92C1903
:1003DC000CF1FF3304D2A74202D9ACF102032C4436
:1003EC00E41B43EA0040C0E7C2F1200320FA03F10A
:1003FC00954090402EFA03F303434FEA154EAFB2EB
:10040C00B1FBFEFC0EFB1C10190C0CFB07F841EAAF
:10041C000041884504FA02F422D969180CF1FF3026
:10042C0004D2884502D9ACF102002944A1EB0801A1
:10043C009BB2B1FBFEFC0EFB1C110CFB07F743EA55
:10044C0001439F420ED9EB180CF1FF3104D29F42AD
:10045C0002D9ACF102012B44DB1B41EA004192E7CB
:10046C006046E3E76146F7E76046A3E76346B7E714
:10047C00834206D916B9002108467BE7C6E900E09D
:10048C00F9E7B3FA83F78FB9834201D3724508D8E1
:10049C00BEEB020460EB030301209C461EB9002155
:1004AC0068E73846FAE7C6E9004CF8E7C7F1200CD4
:1004BC00BB4022FA0CF41C432EFA0CF120FA0CF37C
:1004CC00B84001434FEA14490EFA07F5B3FBF9F8AB
:1004DC001FFA84FE09FB18300B0C08FB0EFA43EADA
:1004EC0000439A4502FA07F240D9E31808F1FF30AD
:1004FC0004D29A4502D9A8F102002344A3EB0A03C3
:10050C0089B2B3FBF9F809FB183308FB0EFE41EA7C
:10051C0003418E452CD9611808F1FF3304D28E4566
:10052C0002D9A8F10203214443EA0040A0FB02983F
:10053C00A1EB0E014145CE46434602D306D14D45B3
:10054C0004D2B9EB020E68EB04030138002EA6D0DE
:10055C00B5EB0E0261EB030101FA0CFC22FA07F376
:10056C004CEA0303F940C6E9003198E74046C5E779
:10057C004346D9E773B5124CA5686B6CABB96B6B82
:10058C00CBB9A5680F4E0E4CAB6993B101220DF19E
:10059C0007012046984701280BD1002200230DF1BA
:1005AC000701304601F0B2FDEEE7204698470028DF
:1005BC00E5D102B070BD024898470028E1D1F8E7B8
:1005CC00EC4D00089400002470B5114C114803F058
:1005DC00B1FCA368C3B19B6CB3B100220E49204699
:1005EC009847A3689B6A0BB1094898470B4D0C4E72
:1005FC000C4C282200230949304601F0D7FD2978FC
:10060C00204603F097FCF4E7074803F093FCE8E777
:10061C00EC4D0008EA58000881050008F803002496
:10062C0094000024FA580008F4580008014B1B6889
:10063C00184700BF00000024014B1860704700BF32
:10064C000000002430B585B004460D461022002170
:10065C00684604F0C5FA02232A4621468DF802307A
:10066C006846034B019302F0A1FA05B030BD00BF00
:10067C003906000880B505460E461746984601F027
:10068C00F9FFDFF82090034604F0B2FA0446424624
:10069C0049F8003039463046A84754F8090000F0B4
:1006AC00E5F900BF08000000114B124A1A60124B0A
:1006BC00DA6822F03F0242F00402DA609A6922F40E
:1006CC00404242F400429A619A699204FCD50B4B69
:1006DC001A6841F20303B3EB124F06D1084AD2F861
:1006EC00083143F00103C2F808310020704700BF05
:1006FC00480000240090D003004802580010005C11
:10070C0000800051014B0360022070479C5500088B
:10071C0008B5034B1B689847BDE8084000F026B8A5
:10072C000400002430BFFFF7FDBF00BF2DE9F041EE
:10073C000B4E0546DFF82C80324606EB0807CC1B27
:10074C000949204604F03EFAA019083C4246002113
:10075C0004F046FA07F108002C67BDE8F08100BFF1
:10076C000000000004000000D8520008074A9368FB
:10077C0093F90E10002907DB5269934204D0044A06
:10078C00536843F080535360704700BFC803002484
:10079C0000ED00E0264B70B515469A6A064612F03D
:1007AC00100F9A6A14BF1124102412F0080F9A6AC1
:1007BC0018BF122492070AD5586B9A6A140634D5BE
:1007CC0019B19A6A22F080029A62132401E06FF048
:1007DC001500174B9A6A12F0010F9A6A18BF14246D
:1007EC0012F0200F9A6A18BF1524D20602D49B6A05
:1007FC009B070AD50E4B5B68190506D5314600F0F0
:10080C000FFA10B180F309880224094B9A6A9206F8
:10081C0003D55A6A22F400525A629A6A204642F070
:10082C00FF029A6200232B7070BD6FF01500CCE7AD
:10083C0000ED00E0134B9A6A12F0007F9A6A14BF25
:10084C001E201D2012F0807F9A6A18BF1F2012F400
:10085C00002F9A6A18BF212012F4802F9A6A18BFB1
:10086C00222012F4003F9A6A18BF232012F4803F12
:10087C009A6A6FEA024218BF24206FEA12429A6207
:10088C00704700BF00ED00E0194B024610B5986AA6
:10089C009C6A10F4805F14BF1720162014F4006FAC
:1008AC009C6A18BF1820A40509D5986B986A000497
:1008BC0004D51AB19A6A22F400429A6219200C4BA0
:1008CC009A6A12F4806F9A6A18BF1A20D2050CD457
:1008DC009B6A13F4005F18BF1C20054A936A43F40B
:1008EC007F43936200230B7010BD1B20F5E700BF04
:1008FC0000ED00E0484BF0B55B688BB0044600257A
:10090C00C3F3080385F31188BFF36F8F02F07F40A8
:10091C00B0F17F4F11D102F00C0008280DD0100758
:10092C004CBF0C4601250022033B8DF80720032BFE
:10093C0005D8DFE803F0256468612C46F3E7002353
:10094C009DF80720D2B902AE04F1200720680834C4
:10095C0054F8041C3246BC4203C21646F6D1099A1E
:10096C00002D54D0C2F3080121B96FEA52226FEA6C
:10097C004222099202A9184603F0EFFA0BB0F0BD1F
:10098C00254BDA6A9107DAD4DA6A002AD7DBDA6AFD
:10099C005200D4D55A69A16942F480725A61BFF3EE
:1009AC004F8FBFF36F8F5A6931F8021C22F480729B
:1009BC005A61BFF34F8FBFF36F8F4DF602729142A6
:1009CC000AD09A6AD2B24AB10DF10702012120462F
:1009DC00FFF7E0FE0346B3E72368B1E79A6A12F427
:1009EC007F4F05D00DF107010120FFF74DFFF1E717
:1009FC009B6AB3F5803FA2D3FFF71CFFEAE70DF12A
:100A0C0007020021E3E70DF107010020EDE722F4D6
:100A1C00FF7222F00102ACE700ED00E0024A5369DC
:100A2C0043F010035361704700ED00E0EFF30880D2
:100A3C00EFF3098101B57246FFF75CFF01BD00BF02
:100A4C00102080F3118808484FF40461401880F39B
:100A5C000988EFF314800221084380F31488BFF354
:100A6C006F8F00F0A3F8000000040024084B9B6873
:100A7C0083420BD1EFF3058343B1064B5A6842F026
:100A8C0080525A605A6A22F400425A6203F032BF12
:100A9C00C803002400ED00E0094A6FF00A019368D6
:100AAC009967084958674B6843F080534B600023A3
:100ABC0083F31188BFF36F8F9368986F704700BFF3
:100ACC00C803002400ED00E010B50446EFF31183D9
:100ADC00102383F31288BFF36F8F0A4B4FF0006221
:100AEC0058699860084B5A60084B026F1A600022D4
:100AFC00436F426783F31188BFF36F8F00F0F8F8F0
:100B0C00204610BDC803002400ED00E07002002454
:100B1C000B498A684FF030001044EFF3098C80E8E1
:100B2C00F01F74467046FFF7CFFFA64604498A684B
:100B3C0002F1300090E8F01F8CF309887047000038
:100B4C00C80300241EF0040F0CBFEFF30880EFF372
:100B5C000980816911F8021C0229FFD001B503F04C
:100B6C0002FA01BD00B2002807DB0123410900F0A5
:100B7C001F00024A834042F82130704700E100E038
:100B8C0000B2013100284FEA0111C9B206DB00F1B5
:100B9C00604000F5614080F80013704700F00F00D2
:100BAC00014B1954704700BF14ED00E00F4A08B513
:100BBC0022F07F020E4B9A60BFF34F8FBFF36F8F03
:100BCC00D3F8882022F47002C3F88820EFF3148342
:100BDC0023F0040383F31488BFF36F8F01F0E0F963
:100BEC0001F0D4FD00F05AF801F028FA00000008DA
:100BFC0000ED00E042F8203C203A009B074953608E
:100C0C00019B21F001019360029B9161D3604FF035
:100C1C008073D36100230265436770478106000827
:100C2C00094A0346906870B113F1160F006E05D097
:100C3C00A0F140029A4205D8834203D2814228BFD8
:100C4C000020704700207047C803002415460C4A4A
:100C5C000E4608B50B4B9060026F1A6000F048F816
:100C6C002C4686F309884FF00000074B9847204626
:100C7C004FF000014FF000024FF00003034C2047EF
:100C8C00C803002470020024833F0008810600087A
:100C9C00014B10221A61704700ED00E0002304485C
:100CAC001021C21801339B2B82F80013F9D1704725
:100CBC0000E100E008B5EFF30583064A103B02EBB8
:100CCC00C30152F8330049688847BDE80840FFF774
:100CDC004DBD00BF004E0008024B0121024A0348E3
:100CEC0000F076B80000042400000024BC55000875
:100CFC00026E4021044B403A18461A60034AC3E97D
:100D0C000112012100F06EB87402002400000B15D2
:100D1C00084AC2F898000B6823F01F03034343F002
:100D2C001003C2F89C308B6843F00103C2F8A0306A
:100D3C00704700BF00ED00E02DE9F0430E4685B092
:100D4C001F4604464FF00009DFF85480B14523DA02
:100D5C006068D8B13FB1411E08421BD11F2819D978
:100D6C002368194216D12368019303F018F9A3687C
:100D7C000343D0B20393D8F89050C5F30725013D37
:100D8C00A84207D801A9FFF7C3FF421C09F10109CA
:100D9C000C34DBE76FF01502104605B0BDE8F083AC
:100DAC0000ED00E0044B0522C3F89420BFF34F8FF5
:100DBC00BFF36F8F704700BF00ED00E0BFF35F8F94
:100DCC00024B0022C3F89420704700BF00ED00E0F6
:100DDC0010B5034C01232278FFF7AEFF207010BD35
:100DEC00F90300240B4A08B500231278FFF7A4FF7F
:100DFC0010F1160F07D0084A0021D2F89030C3F337
:100E0C000723984200DB08BDC2F898000130C2F8F5
:100E1C00A010F2E7F903002400ED00E0544B2DE99B
:100E2C00F043544C85B0D3F890302568C3F30723B6
:100E3C009D4200F29A8000200C26FFF7BFFF8542EE
:100E4C001AD14D4C68464D4F2570FFF75BFC0025C1
:100E5C000646DFF81C81DFF82891AE4213D12378C7
:100E6C0000204349D1F89020C2F30722934276DB4D
:100E7C000020FFF797FF42E0616806FB0011FFF7C7
:100E8C0047FF0130DBE700984FEA051C00EB05112A
:100E9C00CB683B40B3F5000F48D00AD8B3F5001F20
:100EAC0030D0B3F5800F36D0B3F5801F10D001359C
:100EBC00D3E7B3F1807F42D0B3F1007FF7D150F884
:100ECC000C30886803F06BF84A6840F4802009E025
:100EDC0050F80C30886803F062F840F088504A688B
:100EEC0040F4302003902078CDE90123D8F89030DD
:100EFC00C3F30723013B98422AD96FF0150005B0C4
:100F0C00BDE8F08350F80C30886803F048F84A6864
:100F1C0040EA0900E6E750F80C30886803F03FF827
:100F2C0040F0E0604A6840F40030DBE750F80C30E9
:100F3C00886803F034F84A6840F08270D2E750F8C1
:100F4C000C30886803F02BF84A6840F08870C9E7C9
:100F5C0001A9FFF7DDFE237801332370A7E7C1F861
:100F6C0098300133C1F8A0007CE74FF0FF30C6E7A2
:100F7C0000ED00E070550008F90300240000F0FFBC
:100F8C000000081108B5024B1B689847002008BDEB
:100F9C0080020024034B044A1860937843F0020348
:100FAC00937070478002002408000024064907480B
:100FBC0021F00701C1F1105208B502F5802202F0B0
:100FCC007AFF002008BD00BF011300248402002416
:100FDC002DE9F041054600244FF001084FF0B046D2
:100FEC000E4F2B7853FA84F01F280FDC08FA00F30D
:100FFC00D6F8882033EA020208D1C6F8883057F8B0
:10100C0030301BB107EBC0025168984701346A7845
:10101C00E3B29A42E5D2BDE8F08100BF9002002411
:10102C00044B03EB40000023013320F8022B9942C0
:10103C00FADC704754000024084B02464FF0B041D4
:10104C0010B433F910000123D1F8804093402343AE
:10105C00C1F8803010BCFFF785BD00BF54000024E0
:10106C000A4B30B553F830408C4204D103EBC00529
:10107C006D68954205D034B943F8301003EBC003CA
:10108C005A60002030BD6FF00F00FBE79002002487
:10109C00034B002243F8302003EBC0035A60704727
:1010AC0090020024044B05489B6A03F00303022BB7
:1010BC0018BF0020704700BF0044025800127A008D
:1010CC0008B5084B1B6903F03803102B06D0182BFE
:1010DC0006D1FFF7E7FF2323584308BD0248FCE77E
:1010EC000020FAE70044025800127A0008B5284B99
:1010FC0018680B680A2B1FD813B96FF085002CE009
:10110C00013B092BF9D801A151F823F06D1100080E
:10111C00691100080711000841110008731100083B
:10112C000711000807110008771100088111000849
:10113C009111000817480EE0D42B0CD0D83B1C2B77
:10114C00DBD8012101FA03F313490B421ED140F203
:10115C0011110B42D1D01060002008BD0020FAE71D
:10116C00FFF7AEFFF7E70D48F5E7FFF79BFF2323EB
:10117C005843F0E7FFF796FF232358430523B0FBB2
:10118C00F3F0E8E7FFF78EFF232358434008E2E72C
:10119C004800002400127A0000101111006CDC02CF
:1011AC00714B37B5D3F83C2142F00402C3F83C2113
:1011BC00D3F83C2102F004020192019A1A6842F41D
:1011CC0080221A601A6842F480321A601A689103FD
:1011DC00FCD51A6842F480521A60634B1A68920468
:1011EC00FCD51A6902F03802182A17D11A6855076B
:1011FC0007D41A6842F001021A605B4A13685C0754
:10120C00FCD5594B1A6922F007021A611A6912F0BF
:10121C00380FFBD19A6922F00F029A61524B1A686F
:10122C0022F080721A609A6A22F0030242F00202E3
:10123C009A629A6A22F47C7242F010029A62DA6A1A
:10124C0022F00C0242F00802DA62DA6A22F00202A0
:10125C00DA621A6B22F4FF7222F0010242F02202CF
:10126C001A63DA6A22F00102DA621A6B22F47E4205
:10127C001A63DA6A42F48032DA621A6B22F4FE02E2
:10128C0042F480221A63DA6A42F40032DA621A6B90
:10129C0022F0FE4242F080721A63DA6A42F4802233
:1012AC00DA621A6842F080721A601A689001FCD5F2
:1012BC002E4BDA6822F03F0242F00402DA609A699F
:1012CC0042F440429A619A699104FCD5284DFFF78B
:1012DC00F7FE0446A84202D8264800F015FD224B22
:1012EC009A6922F470629A619A6922F00F029A61EB
:1012FC00DA6922F0700242F04002DA61DA6922F413
:10130C00E06242F48062DA619A6922F0700242F083
:10131C0040029A611A6A22F0700242F040021A628C
:10132C001A6922F0070242F003021A611A6902F0EC
:10133C003802182AFAD1AC4202D90E4800F0E4FC6B
:10134C000A4BDA6822F03F0242F00402DA609A6932
:10135C0042F440429A619A699204FCD5064B0020F3
:10136C00044A1A6003B030BD0044025800480258C9
:10137C00FF75B0100076B0104800002408B507487F
:10138C0003F0EFF938B10648FFF704FE0448FFF705
:10139C0053F9002008BD6FF01200FBE7EC4D00087C
:1013AC00B11300080A2838B50446074D04D1AB68C0
:1013BC000D2128465B689847AB68E1B202485B6830
:1013CC009847204638BD00BFEC4D000838B503697E
:1013DC0004465860084D284603F0C3F940B16168D3
:1013EC002846AB680C311B68984700EAE07038BDA2
:1013FC006FF01200FBE700BFC04C000873B50C4641
:10140C0011461E464568B1F5001F026928D104F04B
:10141C0003030F223B4904339B009A4042EA940297
:10142C0002F00303023351F82310130C93FAA3F3C5
:10143C00B3FA83F301EA124203F01F0322FA03F317
:10144C00AA689A4209D1204602F007FE2046FFF70F
:10145C001FFE0021204602F00DFE002002B070BDE0
:10146C00B1F5800F44D028492046FFF7F9FD00283C
:10147C0041D1B6F1806F37D0B6F1C06F36D0B6F12E
:10148C00007F3BD10226214A6B46AD6892E80300EF
:10149C0083E803001E481946826812689047D8B941
:1014AC0004F003030F2104339B00994041EA94019B
:1014BC0001F003030A0C92FAA2F29B00B2FA82F238
:1014CC0003F1B04302F01F02D3F80804954020EA60
:1014DC0011410D43C3F808542046314602F0CAFDB1
:1014EC002046FFF7A9FDB8E70126CCE70326CAE79B
:1014FC006FF08500B2E76FF00F00AFE76FF01500EB
:10150C00ACE700BF0004005847430008D85200085D
:10151C00C04C00082DE9F047044600EBC10600253D
:10152C001C4FB44201D1002014E02068C30600F027
:10153C001F0911D4656845F02005C0F3481AC0F3A3
:10154C0044200F2823D857F82080B8F1000F0DD174
:10155C006FF01200BDE8F087B9F1100F04D0B9F1AB
:10156C00110FEAD16568E8E73025E6E7404603F05D
:10157C00F8F80028ECD04B462A460AF00F014046FA
:10158C0002F0F2FE002804F10804CADAE2E76FF078
:10159C001500DFE7E456000843681B6803F10802F6
:1015AC0052E8002F42F0010203F1080040E800214C
:1015BC000029F3D1194A934223D0A2F54C4293420D
:1015CC001FD002F5806293421BD002F580629342D9
:1015DC0017D002F58062934213D002F54442934235
:1015EC000FD0A2F51C4293420BD002F580629342BD
:1015FC0007D002F51C42934203D002F5806293425D
:10160C0003D15A6842F040025A6053E8002F42F46A
:10161C00807243E800210029F7D170470010014087
:10162C0043681B6803F1080252E8002F22F0010204
:10163C0003F1080040E800210029F3D1194A934234
:10164C0023D0A2F54C4293421FD002F58062934204
:10165C001BD002F58062934217D002F58062934250
:10166C0013D002F5444293420FD0A2F51C42934290
:10167C000BD002F58062934207D002F51C429342D4
:10168C0003D002F58062934203D15A6822F04002E3
:10169C005A6053E8002F22F4807243E8002100299D
:1016AC00F7D1704700100140F8B50C46036941684A
:1016BC005D682379012B15D09F1E7E427E41B602B8
:1016CC006279022A96BF444F4FF4005737F81270D4
:1016DC00A279022A09D0042A2FD0003B18BF01237B
:1016EC001B0306E04FF4C066EAE7B3FA83F35B0929
:1016FC001B07E2790968012A14BF4FF0000C4FF464
:10170C00407CA5421CD10A6822F0805222F4B052CF
:10171C0032431A430A604B6823F440533B434B60FB
:10172C0043681A68936823F4407343EA0C0393608C
:10173C002968BDE8F84002F011BF4FF48053D8E798
:10174C00D1F800E00EF4C06E764506D0D1F800E07A
:10175C002EF4C06E4EEA06060E6041680E68716883
:10176C0001F440518F4204D0716821F44051394347
:10177C00716041680E68316801F010218B4204D011
:10178C00316821F010210B433360436819688B6872
:10179C0003F440739C4505D08B6823F4407343EAF3
:1017AC000C038B6043681B689968490405D5032AB0
:1017BC0009D09A6822F4804204E0032A03D19A6883
:1017CC0042F480429A6021682B68994203D002F05F
:1017DC00C5FE23682B60F8BDE45800082DE9F341E1
:1017EC000646476804695B48206002F0BAFF20B9DE
:1017FC006FF0120002B0BDE8F0812068F9688368D0
:10180C001B6898470028F5DB01AA0021386A02F012
:10181C00C3FD0028EEDB019B002219791868FFF745
:10182C0079FE0028E6DB756833692C68D3F80480F0
:10183C00236823F001032360686802F092FF0028FC
:10184C00D6D0D5E901018368DB6803B1984754E829
:10185C00003F43F00C0344E80032002AF7D1414624
:10186C003046FFF721FF2B7D1BB1A36843F0080323
:10187C00A3606B7D1BB1636843F400436360AB7D75
:10188C001BB1636843F480336360EB7D1BB1636809
:10189C0043F4003363602B7E002B43D02E4B9C42D1
:1018AC0026D0A3F54C439C4222D003F580639C4286
:1018BC001ED003F580639C421AD003F580639C42D2
:1018CC0016D003F544439C4212D0A3F51C439C4212
:1018DC000ED003F580639C420AD003F51C439C4256
:1018EC0006D003F580639C4202D01C4B9C422ED147
:1018FC0073681A68936843F48043936023686A7E24
:10190C0023F0787343EA425323602368AA7E23F4BE
:10191C00F81343EA02432360EB7E1BB1A36843F444
:10192C000043A3602B7F1BB1236843F0005323605B
:10193C00236843F001032360E3699A02FCD5E36951
:10194C005B02FCD530467B6A9847002052E76FF06B
:10195C0015004FE7C04C000800100140000C005867
:10196C00F8B5436802460E4691F805E01C68036919
:10197C0008795D6801288B7922D1BEF1020F40F203
:10198C008180022B1F464FF4C0614FF4005C00F0C5
:10199C009380042B00F08A8028B1C31E012B40F2E7
:1019AC0088804FF48050BCF5805F00F08F80BCF5D0
:1019BC00405F00F08D80BCF1000F1CD101231BE0B7
:1019CC0002280AD1BEF1020F69D9022B1F464FF42F
:1019DC0080610BD04FF4005CDBE7BEF1020F61D9E4
:1019EC00022B1F4660D100286CD00021C31E012B96
:1019FC005FD900200227032373455AD102F018FD4A
:101A0C00B84256D1F3795BB3012B63D1334B9C4273
:101A1C0026D0A3F54C439C4222D003F580639C4214
:101A2C001ED003F580639C421AD003F580639C4260
:101A3C0016D003F544439C4212D0A3F51C439C42A0
:101A4C000ED003F580639C420AD003F51C439C42E4
:101A5C0006D003F580639C4202D0214B9C4228D1D6
:101A6C0023683146104623F001032360FFF71CFE68
:101A7C00236843F00103236096E8030085E8030024
:101A8C000020F8BD4FF4C061164F022B37F81EC072
:101A9C001F467FF47EAF78B94FF0805083E74FF448
:101AAC008061F1E70021EFE7002193E700283FF484
:101ABC0078AF6FF08500E4E7C31E012BF9D902273C
:101ACC00002070E701464FF0805094E7002393E725
:101ADC00022391E7032B99D0EBE700BF00100140E4
:101AEC00000C0058E45800084FF0E0230F4910B5E3
:101AFC009C691A6908689B6902F480320C4934B9F4
:101B0C0093B903464AB90A681044C01A10BD002B99
:101B1C0008BF03460AB9A342F5D90A6802440A6011
:101B2C004FF0E0221269EEE70446F3E7C403002409
:101B3C00C00300240A4B1022002083F8232046F611
:101B4C006052084B1A6046F65F52074B18604FF014
:101B5C00E0235A6198611A6942F007021A617047D2
:101B6C0000ED00E0C4030024C003002410B5FFF70F
:101B7C00BBFF1049104B0868D3E90042001942F131
:101B8C000002C3E900020D4A00230B6046F66053C5
:101B9C00D2E90041001BB0FBF3F043431B1941F1A8
:101BAC000001C2E9003100F0E3FEBDE81040FEF791
:101BBC00DDBD00BFC0030024C8000024C000002409
:101BCC002DE9F041DFF8E08099B1421C0BD14FF0C8
:101BDC00E022136923F0010313614FF07F43C8F82F
:101BEC000030BDE8F081D8F80060012807DC002740
:101BFC000BE0431CD8F80060F7D140F2562040F2BD
:101C0C0057239842A8BF1846471EEFF3118510239F
:101C1C0083F31288BFF36F8FFFF766FF234C4FF0EF
:101C2C00E0239969D4E9002380184FF0000243F1B6
:101C3C000003C4E900031E4B1A601E4B1A68831A7A
:101C4C002ED446F6605C0CFB073303F5DA435F33A6
:101C5C00B3FBFCF7131A40F2D6620CFB073393422A
:101C6C0038BF1346144A934228BF1346C8F80030B5
:101C7C004FF0E022013B9069536100238142936154
:101C8C00A1EB0003D4E9001238BF9B195B1842F199
:101C9C000002C4E9003285F31188BFF36F8FA0E70F
:101CAC0040F2D663E2E700BFC4030024C80000245E
:101CBC00C0030024C0000024407EFF0038B5EFF3C1
:101CCC001185102383F31288BFF36F8F084B1C68A8
:101CDC00084B1B68E41AFFF707FF85F31188BFF365
:101CEC006F8F46F660532044B0FBF3F038BD00BF55
:101CFC00C8000024C0000024024A536823F00203E9
:101D0C00536070470010005C002800F08280424B4A
:101D1C009A6902F44042B2F5404F1BD13F4B404A06
:101D2C000344934258D33F4A3F4B02449A4266D3F2
:101D3C003E4A02449A4264D33D4A02449A4262D3D8
:101D4C003C4A02449A4260D33B4A02449A421ED215
:101D5C00012042E09A6902F44042B2F5004F1AD1D8
:101D6C00364B374A0344934249D3364A364B0244E6
:101D7C009A4246D9354A02449A4244D9344A0244DA
:101D8C009A4242D9334A02449A42E1D901339842E9
:101D9C003FD8002021E09B6903F44043B3F5804F0A
:101DAC000FD12D4B2D4A034493422AD32C4A2D4B51
:101DBC0002449A4227D92C4A02449A4225D92B4AEA
:101DCC00E1E72B4A2B4B02449A421CD31A4A024499
:101DDC009A421AD3284AB8E70620284A136823F0F7
:101DEC000F0303431360136803F00F0398420ED0E4
:101DFC00136803F00F03C01A18BF012070470520A9
:101E0C00EBE70420E9E70320E7E70220E5E70346D8
:101E1C00F1E70120704700BF00480258FFAD43F0C6
:101E2C000024F400FF10E3F200639F02FF7382F5BD
:101E3C00FFD621F8FF39C1FAFF9C60FD7FA77BF329
:101E4C00C0E1E400FF85FCF57FDE80027F647DF855
:101E5C00FF42FEFA7F217FFDFFCDE4F700366E01D5
:101E6C007F9AEBF97FCC0602FF66F2FB7F33F9FD1C
:101E7C007FEB10FC80B14F017F4EB0FE0020005272
:101E8C0038B5EFF31185102383F31288BFF36F8FEE
:101E9C00064B9C6802F078FC85F31188BFF36F8FBA
:101EAC002046BDE83840FEF7E1BD00BFC803002462
:101EBC0038B5094B53F82040013053F82050A54257
:101ECC0000D838BD636823B1204602F060FC0834AA
:101EDC00F5E723689847FAE7245800082B4B0122B2
:101EEC00032070B52A4C86B02A4D1A70FFF7E0FF1C
:101EFC0000F0A8FD02F067FC0420FFF7D9FF26468E
:101F0C003034AE4210D3224C00F078FB224EAC425F
:101F1C0026D300F087FBFEF757FB204A137B23F0F8
:101F2C000103137306B070BD54F80C3C059354F8C0
:101F3C00103C049354F8143C039354F8183C02934B
:101F4C0054F81C3C019354F8203C009354E90A23A8
:101F5C0054E90C0100F082F954F8303C5E65CEE790
:101F6C00D4E90A23B3F1FF3F08BFB2F1FF3F05D01C
:101F7C0052EA0301206803D102F031FC3034C6E789
:101F8C003146183000F07AFCF8E700BFFA03002461
:101F9C00D8520008D8520008C34800085001002449
:101FAC0006480021064A08B5121A02F008FC05483A
:101FBC00054A0021121A02F002FC08BDC0000024E0
:101FCC00FC030024000000200000002070B500235A
:101FDC0086B00122144E01930446144D06EBC01634
:101FEC001349CDE904230F22CDE9023214234FF417
:101FFC00A07203FB00554FF4C0700E4B00FB041194
:10200C003046009500F02AF9737B0B4A23F0040349
:10201C00EE602C7473734FF4046304FB03331344AA
:10202C006B6006B070BD00BFD0000024C803002454
:10203C00400C0024D547000800040024BFB5002044
:10204C00FFF736FF294B83F30888294D0024F02332
:10205C00284E294F85F82230EC772C766C76AC76AE
:10206C0085F820406B6A43F4E0236B62FEF7D6FCE4
:10207C00FEF70EFE4FF0FF33AB62EB62FEF7CEFEC7
:10208C001E4DFEF729FE1E4B40F20112B3609A81E1
:10209C00DC66C3E9184402F063FB0120FFF708FF7C
:1020AC000220FFF705FF00F0DDFA164B75614FF4C7
:1020BC00806205930123144928460094CDE903431B
:1020CC00CDE901443B4600F0C9F86A7B0646284638
:1020DC0022F004026A7302F0BEFB2046FFF776FF83
:1020EC003A4631462846FEF7B1FD00BF400C0024AD
:1020FC0000ED00E0C8030024E91E00085001002494
:10210C00D0010024405A0008C00D00242DE9F341F1
:10211C0004460E4600F10808EFF31187102181F3F5
:10212C001288BFF36F8F056AC1688D422AD202F004
:10213C00C6FBA2680546314678B10024406902F01E
:10214C0041FD2846AC6702F086FB4046394600F05C
:10215C0011FA204602B0BDE8F081E06902F032FDD0
:10216C00E369A2680020134462699342E36104BFEF
:10217C002369E361236A0133236287F31188BFF378
:10218C006F8FE7E752EA03010AD0074989684E616D
:10219C003946CDE900230246404600F0BFF9D9E7A5
:1021AC006FF02200E9E700BFC8030024F7B504462E
:1021BC00084604F10807EFF31186102181F3128809
:1021CC00BFF36F8F216A002931D0A268A16902F098
:1021DC00F9FCA369A2682046134462699342A36187
:1021EC0004BF2369A361236A013B236202F067FBEE
:1021FC00054660B34169A268E06902F0E3FCE3695B
:10220C00A2682846134462699342E36104BF2369C0
:10221C00E361236A013323620024AC6702F01BFBE9
:10222C003846314600F0A6F9204603B0F0BD52EA1C
:10223C0003010AD008498968486131463846CDE91E
:10224C000023224600F06AF9EFE76FF0220086F3D4
:10225C001188BFF36F8FE8E7C803002407322DE91C
:10226C00F04322F0070285B00E461F46109900F18C
:10227C0058037F3204460173042122F03F0206F119
:10228C00400941733F2AA2F14008C0E916334FF0D0
:10229C00000383600F98E373A073C4E9063305D879
:1022AC0083F31188BFF36F8F084602DFB518204601
:1022BC002946FEF73BFA07300E9B314620F007000B
:1022CC00C4E91898A0662D1A029320460D9B2A4645
:1022DC0001930C9B00933B46FEF78CFC002363653B
:1022EC00044B9B6803B1DB6E2846E36605B0BDE882
:1022FC00F08300BFC803002438B50D4D2B4653F8AE
:10230C00184F9C4200D004B9EC68AB6838B95A7BC2
:10231C00D20604D1A26912B9DA897F2A05D89C4267
:10232C0002D0204600F0DAF923466B6138BD00BFBD
:10233C00C803002408B590F90D200146437B002A00
:10234C0004DA03F07F03437302F04BFA044B9868F2
:10235C00431A58425841BDE80840FFF7CDBF00BFB3
:10236C00C803002470B490F90D30427B002B29DB9C
:10237C00D30627D183692BBB62F07F0212494273CB
:10238C000A4652F8184F944218BF2346CC6923B919
:10239C00C0E900242060C8610CE090F90E5093F95C
:1023AC000E60B5420AD0AE4208DD5A68C0E9003270
:1023BC0010605860002070BCFFF79EBF9C42E7D0B5
:1023CC001B68E4E770BC7047C8030024002A2DE9A1
:1023DC00F0410E46427B0CBF1021082104461142ED
:1023EC000FD141EA0203D20918D1437308291BD03B
:1023FC000120FFF781FFBFF35F8F637B23F0600346
:10240C006373274B9B68A34243D1EFF30583002BE7
:10241C003FD13046BDE8F041FEF73EBB03F07F03F1
:10242C00437302F0DEF9E1E7A36813B1204602F032
:10243C00E0F904F1180004F1580702F07DFAA56DDB
:10244C00AF4211D04FF0000875B1284602F0D1F917
:10245C0005F1180002F070FA2846C5F87880FFF7ED
:10246C0081FFA56DAF42EFD10D4DAB689C42BFD142
:10247C00EFF30583002BBBD00120FFF73DFF094B89
:10248C0040F20112AB609A810022C3E91822DA668D
:10249C00B1E786F31188BFF36F8FBDE8F08100BF01
:1024AC00C8030024D001002470B590F90D2001461A
:1024BC00437B002A04DA03F07F03437302F091F9A3
:1024CC004B7B154A63F07F0310464B7350F8183F53
:1024DC00D469834208BF002323B9C1E900042160F9
:1024EC00D1610CE091F90E5093F90E60B5420ED00B
:1024FC00AE420CDD5868C1E900300160596090684B
:10250C00431A5842BDE870405841FFF7F5BE9C4253
:10251C00E3D01B68E0E700BFC8030024F8B5124BFA
:10252C000C461146114A9868DDE906761060EFF307
:10253C001182102282F31288BFF36F8F9D68284698
:10254C0002F061F9B6F1FF3F08BFB7F1FF3F06D0CB
:10255C003A463346064905F1180000F08FF920463B
:10256C00BDE8F840FEF798BAC8030024E80300243D
:10257C00C348000849B9EFF3058030B9054B5A69D7
:10258C009B689A4201D0FEF787BA81F31188BFF39A
:10259C006F8F7047C803002410B5EFF3118410221D
:1025AC0082F31288BFF36F8F427B510704D484F3FC
:1025BC001188BFF36F8F10BD22F004024273FFF736
:1025CC00D1FE21460248BDE81040FFF7D3BF00BF43
:1025DC00FB030024034648B9EFF3058232B9064ADF
:1025EC0051699268914201D0FEF756BA83F3118873
:1025FC00BFF36F8F704700BFC8030024EFF3118146
:10260C00102383F31288BFF36F8F054B9A68D37B2B
:10261C00013BD37381F31188BFF36F8F704700BFF9
:10262C00C803002438B5EFF31185102484F3128805
:10263C00BFF36F8F0A4B00209A68D37B0133D3739F
:10264C00FFF75AFE85F31188BFF36F8FEFF31180FC
:10265C0084F31288BFF36F8FBDE83840FFF7BABF21
:10266C00C8030024024B03F11802C3E90622704789
:10267C00C8030024014B9868704700BFC8030024AE
:10268C00044B0122C01A044BC0105843034B1A547C
:10269C00704700BF50020024ABAAAAAAFB03002477
:1026AC00C3897F2B12D80A4B1B6863B1094B90F975
:1026BC000E201B689A4209DB437BDB0606D1064BD6
:1026CC00C31A18BF012303F0010070470023FAE777
:1026DC00F0030024EC030024D00000240E4B70B552
:1026EC001E7C05460D4C06EB460304EBC30420464A
:1026FC0002F022F90A4B002228469A55FFF7D0FF28
:10270C0048B1084B204608491A68013ABDE87040A8
:10271C00D31700F0B3B870BDC803002450020024D6
:10272C00FB030024F00300248D26000838B5EFF3DA
:10273C001185102383F31288BFF36F8F104B114A4E
:10274C009C681068A04206D1FFF7C8FF85F311887A
:10275C00BFF36F8F38BD00211B7C11600A4AD35C1C
:10276C00002BF3D02046FFF79BFF0028EED0637BB5
:10277C00DB0602D12046FFF797FE2046E4E700BFB8
:10278C00C8030024E8030024FB0300240C480D4A72
:10279C000D49121A08B502F014F80C4A0C490D48F0
:1027AC0002F00FF80C4A0D490D4802F00AF80D48DA
:1027BC000D4A0E49121ABDE8084002F002B800BFDB
:1027CC0000000024BC0000247C5A0008000000001B
:1027DC007C5A00080000002400000000385B000850
:1027EC00000000000000002000000020385B000802
:1027FC00034B1B680BB9FFF761BA0020704700BF91
:10280C00F403002430B570B10B4B5B6898420AD0CE
:10281C00036843B1D3E90421D0E90445121941EB13
:10282C000501C3E90421D0E9003213605A6000238A
:10283C00C0E9003330BD00BF4C0000240E4B10B576
:10284C001C689C4204D1FFF7D3FF6FF0004010BD11
:10285C00FFF7CEFF002CF8D0D4E904321B1A62EB40
:10286C00E072B3F1004F72F10001EEDA002AACBF56
:10287C0018460020EBE700BF4C000024B3F1FF3FEB
:10288C0008BFB2F1FF3FF8B504461D4616465ED0B0
:10289C008160EFF31187102383F31288BFF36F8FDE
:1028AC00013275F1FF3324DA2E496FF00103D1E9BF
:1028BC0000209B1A4FF0FF3262EB00009E1B60EB76
:1028CC000500012E70F1000301DA01260020C4E995
:1028DC000460254ED6F800C07568B44508BF4FF0AB
:1028EC00000CBCF1000F0DD1C4E900652C607460C4
:1028FC001CE0FFF77DFF013645F10005361845EB6E
:10290C00E070E4E7DCE90420D4E90431934271EB94
:10291C00000E1DDAD21ADCF8043060EB0100CCE9B1
:10292C000420C4E900C31C60CCF804403368B342F3
:10293C0009D09C4207D10D4B1C6824B9FFF77EFFD0
:10294C002146FFF73DF987F31188BFF36F8FF8BD70
:10295C009B1A61EB0001AC45C4E90431C4D0DCF82E
:10296C0000C0BEE7680200244C000024F4030024DD
:10297C002DE9F84FEFF3118C102383F31288BFF37A
:10298C006F8FDFF8B4A00024DFF8B09000252C4F37
:10299C00C9F80000DAF80000504508BF0020D9F84B
:1029AC000030E046D7E9002178B34FEAE37ED0E966
:1029BC00046CB3427EEB0C0B05DAF61A6CEB0E04CE
:1029CC00C0E9046421E0B21841EBE671C0E90445AA
:1029DC00C7E90021FFF716FF88F31188BFF36F8F4B
:1029EC0083689847EFF31188102383F31288BFF3A1
:1029FC006F8FD9F80030C446DAF800009B1B5045A5
:102A0C00C9F80030CBD1D7E900219A184FF0000457
:102A1C0041EBE373C9F80040C7E90023FFF70EFF51
:102A2C002146FFF7CDF888F31188BFF36F8FBDE80F
:102A3C00F84FFFF77BBE00BF4C000024F4030024CA
:102A4C0068020024014801F075BA00BF455A00081D
:102A5C0038B5064C064DAC4201D3002038BDD4E944
:102A6C0001122046143401F07CFFF4E7940000249A
:102A7C00940000242DE9F04101260746B24201DC06
:102A8C00BDE8F0813B461F4613F8014B002CF7D0F4
:102A9C00252CF8D11C78252C07F10207F2D0002345
:102AAC00DFF804819C461D461F2D18D8A4F1200E7A
:102ABC00BEF1100F09D9A4F1300EBEF1090F1ED8CA
:102ACC000A2404FB03E3202504E028FA0EFE1EF082
:102ADC00010F06D017F8014B002CE5D128E07F2D13
:102AEC001CD8A4F1300EBEF1090FE9D9242C10D159
:102AFC00BCF1000F46D0B34246D00023EAE724F0E5
:102B0C00040EBEF12A0FF8D06C2C09D145F08005CB
:102B1C00E0E724F0040EBEF12A0FEED06C2C22D08C
:102B2C006C2C1BD8682C23D06A2C28D04C2C26D08B
:102B3C00BCF1000FA4D0B445A0D144F02007A7F1FC
:102B4C00650CBCF1020F0B6801D9612F1ED1073344
:102B5C0023F0070308330B6001368EE7742CB9D0D1
:102B6C007A2CB7D0E4E72C0648BF45F40075CDE7C6
:102B7C00EC0548BF45F4007545F48075AAE745F4AB
:102B8C002075A7E79C46B8E76324D6E7692C02D0EA
:102B9C0007D8632C03D02F0601D5AC05D7D404334A
:102BAC00D9E7732CF6E700BF892801002DE9F04F17
:102BBC0095B04368039383789B07CDE90A1280464E
:102BCC0011D50D920B4600261F7877B1252F10D00A
:102BDC0001330993039B414638469847002806F178
:102BEC00010680F22D854FF0FF36304615B0BDE85A
:102BFC00F08F5F789A1C252F0992EBD00024254684
:102C0C00A246A346BBF11F0F32D8A7F12003102B0D
:102C1C000AD8DFE803F02409092A0909091B090964
:102C2C000922092709091900A7F13003092B2DD90D
:102C3C002A2F39D154B90D9B1BF0400F53F8042B9C
:102C4C000D9329D0154601E04BF0010B099B13F8AD
:102C5C00017B0993002FD5D156E04BF0020B4BF0C2
:102C6C00040BF3E74BF0080BF0E74BF0100BEDE720
:102C7C00BBF17F0F3FD8A7F13003092BD8D81BF03D
:102C8C00400F03D00A2202FB0535DFE70A2202FBC4
:102C9C000A3A4BF0200BD9E7B2F1000AF9DACAF183
:102CAC00000A4BF0280BD1E72E2F05D11BF0400F5B
:102CBC009BD14BF0400BC9E7242F1CD1002C00F00A
:102CCC008A800B9B0D931BF0400F0AD152460A9839
:102CDC000DA9FFF7CFFE0D9B1A1DD3F800A00D9286
:102CEC00B4E72A460A980DA9FFF7C4FE0D9B1A1DDE
:102CFC001D680D92AAE76C2F5AD052D8682F5FD05E
:102D0C006A2F65D04C2F63D034B10B9B0A980D936E
:102D1C0022460DA9FFF7AEFE002D47F02003B8BFE9
:102D2C002BF0400B0793A3F16503BCBF1FFA8BFB81
:102D3C000025022B54D947F02003612B40F063830C
:102D4C00FF4307F0200308930D9B073323F0070381
:102D5C0003F108020D924BF4C05204921A680592CA
:102D6C005A68DDF814C0C2F30A57C2F3130047EADD
:102D7C000C0353EA000401460BF040044FEAD272F4
:102D8C0059D13027D2B28DF83D708DF83C20A7B2C6
:102D9C00002C00F0BF810C2D4FF000075DDD0D25E0
:102DAC00B2E0742F3FF452AF7A2F3FF44FAFABE742
:102DBC001BF0800F18BF4BF4007B4BF0800B45E7EA
:102DCC001BF4807F18BF4BF4007B4BF4807B3DE7FA
:102DDC004BF4207B3AE72546AB465446AA4635E7EA
:102DEC00FF4307F0200308930D9B073323F00703E1
:102DFC0003F10802D3E90001079B0D921BF0400F71
:102E0C0008BF0625652B40F099816B1C0022DBB2B4
:102E1C004BF4805B1446112BCDE9002428BF112301
:102E2C000EAA00F0ADFCC3B2059302230E9FCDF8A1
:102E3C0010B0069380E0002F00F03B813123D2B21A
:102E4C008DF83D30A7F2FF378DF83C20A3B2002C53
:102E5C0000F057810C2D00F35681C5F10D0189004E
:102E6C00012301F1FF39A1F12104C1F1210E23FA53
:102E7C000EFE03FA04F403FA09F344EA0E0413EB0E
:102E8C00030E44EB0409DEF1000BCDF818B069EB2E
:102E9C00490BCDF81CB0DDF814B01EF1FF3E49F122
:102EAC00FF390EEA0B0E09EA0009734574EB0909A8
:102EBC0012DBC1F12009B1F1200E00FA09F92BFA4D
:102ECC0001F141EA09015CBF40FA0EFE41EA0E0134
:102EDC0011F0010F00F0F0800599CB1840EB0400C5
:102EEC00B0F5801F9C46C0F2E7809DF83D10B7F509
:102EFC00806F01F101018DF83D1000F0E980069A18
:102F0C0007991A4013460140089A0D20C2F1570444
:102F1C0003F00F021B0943EA01730911002A40F068
:102F2C00FE80854280F2FD800138F1D10E23012014
:102F3C00CDE905307023079307F10902122A3B46AD
:102F4C0000F2D1809DF83CB00BF00C091BF0010B8A
:102F5C0040F02D81049B9A0700F1238113F00404A7
:102F6C0000F00281B9F1000F40F027814FF02009E9
:102F7C00049B13F4405F23D1059B5033002D6B440D
:102F8C0008BF0125133B059A22B113F8012D302AF5
:102F9C0000F04781049B13F0100F059B18BF2B46C4
:102FAC00381DC0F24381BD4240F34081049A42F483
:102FBC00005292B2BB42049240F33A817D1C5D1BDD
:102FCC00049B13F4005B00F0358127EAE7740134AD
:102FDC00B9F1000F00D00134002D00F034816B1CCE
:102FEC001C44049BA245CCBFAAEB0404002413F0A0
:102FFC00090F04D13444A64240F02A810024B9F1CF
:10300C00000F08D0039B414648469847002806F11C
:10301C000106FFF6E8AD049B1A0513D5039B414648
:10302C00302098470028FFF6DEAD089BC3F17800EE
:10303C004146039B00F0F8009847002806F1020671
:10304C00FFF6D1AD049B1B0705D43444B44240F0C9
:10305C00098126460024BBF1000F00F0348127EAD9
:10306C00E77AA7EB0A0B6D42059B5B4584BF0EAB61
:10307C005B440AF1FF3A8CBF58793020554506F174
:10308C00010900F3F980039B4146984700280BF196
:10309C00010BFFF6A8ADBAF1FF3F08D1039B4146E7
:1030AC002E2098470028FFF69EAD06F102094E46E9
:1030BC00DAE730230127C2E6069B03EA0C0C079BD8
:1030CC0003401846B7F5806F26D15CEA00001CD08F
:1030DC0042F008028DF83C204FF480670E230593D4
:1030EC00702307933B4603F16302C62A3AD903F2D5
:1030FC00E73340F2CE7293428CBF04230323069332
:10310C0020E71D46DEE70D25DCE742F004028DF8D2
:10311C003C20E3E73D46F7E663460146F4E6092A20
:10312C0009D830320DF1380C844485428CF80520D6
:10313C00B8BF0546F8E62244D2B2F3E7079B662BEC
:10314C0005D14BF4005B2C460122112363E6EBB254
:10315C00012B4FF000024FF0650738BF01231446D6
:10316C00079758E60223CAE7B9F1000F3FF400AF06
:10317C00BAF1030F34DD049B1F07AAF103042FD40B
:10318C003444039B414620209847002806F1010651
:10319C00FFF629ADA642F4D1BBF1000F36D00024C6
:1031AC0015E0B9F1000F2BD14FF02B09E0E6B9F186
:1031BC00000F28D14FF02D09DAE64FF0200BBAF1B1
:1031CC00040FECDD049B1D07AAF10404D8D5039B66
:1031DC00414658469847002806F10106FFF603AD14
:1031EC009DF83C309F4D13F0080F9F4B08BF1D46B8
:1031FC002F46B94617F8010B50B9751BA9445DE071
:10320C004FF02B0BDBE74FF02D0BD8E75C46E7E7D5
:10321C00089BC01A4146039BC0B298470028E8DAC5
:10322C00E1E4059A013AD2B20592ACE65D1EC7E61E
:10323C000025C5E6049B13F4006F069B0CBF03240A
:10324C0005241C44C4E6049BD90648BF0134C8E6D7
:10325C00039B414620209847002806F10106BFF643
:10326C00CAAEC0E4039B414630209847002806F1C3
:10327C000106BFF6EBAEB6E4BA450AD19DF83D3077
:10328C00352B1ED805D19DF83C3013F0100F08BF1C
:10329C003120039B414698470028FFF6A4AC049BC1
:1032AC00D8060BD5BAF1FF3F08D106F10209414609
:1032BC002E20039B98470028FFF695AC4E464C44B5
:1032CC0046E23120E5E79DF83D0031281EBF9DF810
:1032DC003C3023F010038DF83C304146039B98475B
:1032EC000028FFF680AC002D6DDD039B41462E209F
:1032FC009847002806F10209FFF675AC0126334603
:10330C00059A96423BBF50336B44302013F8130C94
:10331C00039B41469847002809F10109FFF663AC6D
:10332C000136F6B2AE423346EADDDDE90732981AD1
:10333C004146039BC0B298470028FFF654AC002FBF
:10334C0004DB4FD19DF83C30DB064BD57F422D2062
:10335C00039B414698470028FFF645AC069B042B7F
:10336C0042D14FF47A7697FBF6F505F13000039BCA
:10337C004146C0B29847002809F10309FFF633AC67
:10338C0006FB1577642697FBF6F505F13000039BD9
:10339C004146C0B29847002809F10109FFF623AC59
:1033AC0006FB15770A2697FBF6F505F13000039B13
:1033BC004146C0B29847002809F10109FFF613AC49
:1033CC0006FB157718E0049BDA0602D406F1010916
:1033DC00ABE7039B41462E209847002806F10209D3
:1033EC00A3DA00E42B20B3E7069B032B09F10209B7
:1033FC00C8D0069B012BD5D107F1300009F101098A
:10340C004146C0B255E7A7F16303122B00F20081CD
:10341C00DFE813F013005800FE00FE00FE00FE0073
:10342C005800FE00FE00FE00FE00FE001901F9002F
:10343C00FE00FE002C00FE00BA000D9B1A1D1B683E
:10344C000D928DF8383001240EAF1BF0080F2ED0E2
:10345C0007EB04093D46A9452BD1F71BB944AAEB50
:10346C0004042BE7715A00086D5A00080D9B1A1DB5
:10347C000D921F68AC4B002F08BF1F461BF0400F6E
:10348C0014BF29464FF0FF31384601F072FA04465A
:10349C00DBE7039B4146202098470028FFF6A3ABAF
:1034AC00013DA542F5D85644761BAA46D0E75546B1
:1034BC00F7E715F8010B039B414698470028CADA39
:1034CC00FFF791BB1BF0800F0D9B35D01BF4007FD9
:1034DC002DD0073323F00703D3E9000103F10802D1
:1034EC000D922BF0100900291FFA89F936DA4042A7
:1034FC0061EB410149F480690DF1380B0A235A46FE
:10350C0001F043FA19F0400FA0EB0B0B65D029F03A
:10351C0001025D4592B240F3B380002F00F0AA8007
:10352C0019F010032C46914626D002345CE01A1D8B
:10353C0018680D92C117D4E71A1D1BF4807F196807
:10354C000D9201D10846F5E71BF4007F15BF48B278
:10355C0008B241F3C01141F3C031C2E750EA010394
:10356C00CAD11BF0400FC7D0002DC5D12BF0110BC9
:10357C001FFA8BF92C46AB4640F2064319EA0303BB
:10358C001CBF013400232FE02BF0100B1FFA8BFB18
:10359C000A231BF080040D9A58D01BF400711DBF38
:1035AC00073222F0070202F10801101D19BF0D911C
:1035BC00D2E900010D90106850EA010253D12BF0B2
:1035CC0016091BF0400F1FFA89F950D0002D4ED16F
:1035DC002BF0170B1FFA8BF9AB4619F0100353D0D5
:1035EC00002F4FD10BF1010419F0080F5FD119F026
:1035FC00010F06D0A2456EDDAAEB040404EB0B050B
:10360C00544622464EE04BF0100B10237827C0E7AF
:10361C0047F02003782B04D1C7F1780343F0100353
:10362C00B7E7039B4146252098470028FFF6DBAA05
:10363C00039B4146384698470028FFF6D4AA023629
:10364C00099BFFF7C1BA08230027A2E7111D0D91B2
:10365C001BF480711068AFD01BF400711ABFC0B29C
:10366C00214680B2A8E72BF0060B1FFA8BF90DF15F
:10367C00380B44E729F011091FFA89F92C467BE72E
:10368C009146AAE75C4650E75C4675E7CDE9042312
:10369C004146039B202098470028FFF6A4AA049AD1
:1036AC00059B01329245F1DC341BA6181446A3B1DC
:1036BC00039B4146302098470028FFF694AA87B315
:1036CC00023641463846039B98470028FFF68BAAE2
:1036DC00B14635441CE05D4693E740F2064319EAD7
:1036EC00030FF5D019F0020F14BF2B20202019F472
:1036FC00806F06F10106414618BF2D20E3E7039BBE
:10370C00414630209847002809F10109FFF66BAAC1
:10371C00A5EB09035B45F2DC5D460EAE35B9D94429
:10372C009DE60136D4E700BF755A0008013D039BA6
:10373C00705D414698470028F0DAFFF754BA039BB6
:10374C00414620209847002806F10106FFF64BAAB7
:10375C00A31B002BF3DC73E71FB502AB0093074AE6
:10376C004FF0CC3301F0F4F9DDE90201C00840EA76
:10377C004170C90805B05DF804FB00BFCDCCCCCCC2
:10378C002DE9F04F9BB0044605920A460A93C2F30A
:10379C000A559DF890300B93D20FC1F31303099285
:1037AC00090D85B950EA03021CD1059A30235371D7
:1037BC00099B957143F0020313711560012738467C
:1037CC001BB0BDE8F08F40F2FF7295424AD1034323
:1037DC00099B059A14BF43F0080343F004031371CB
:1037EC000027ECE700F0010208924FEA830801225F
:1037FC00AB4D48EA907887009A461646C5F1000B07
:10380C005846069200F01CFBB5F1FF3FACBF814659
:10381C00A0F10109ABEB090B09EB05035846049326
:10382C0000F014FB16A9A0F17D05584600F012FA21
:10383C0012AB069A0193A9EB050510AB029200930B
:10384C0020462B4616AA514601F0C7F8B9F1010FD4
:10385C0004460D4600F2D280089B002B40F0C58038
:10386C0001276BE043F4801A00F001024FEA8A084A
:10387C000343A5F23545089248EA90784FEA800751
:10388C0049D140F2FE7319420CBF01260026002DCF
:10389C003246B3DB284600F0CDFA032DC8BF013801
:1038AC00049000F0D3FA049B7C305D1B054416A9F0
:1038BC00184600F043FA12AB019310AB009320466C
:1038CC002B46029616AA514601F087F8049B152B3D
:1038DC0004460D4600F2868014AB724A00933846BB
:1038EC004FF0CC33414601F033F9149B159A9B08E9
:1038FC0043EA827303EB8303BB42DDE9109A0CD1DC
:10390C003846414600F08EF9049B83428CBF002759
:10391C000127002612E00126B9E7089B002B51D1A4
:10392C00013F48F1FF31B81B61F1000100F07AF959
:10393C00049B089F83428CBF002601260B9B002B07
:10394C0040F09080DDF828B04FF00008CDE90688F3
:10395C004FF00A0ADDE91001FFF7FEFE129B0E93F1
:10396C00CDE90C0118461399FFF7F6FE0C9B0D9A46
:10397C000F9198420B469341814680F08D802046F2
:10398C002946FFF7E9FE0E9A0AFB09F3934214BF8E
:10399C00002606F001060C9B10930D9BCDE9113906
:1039AC000F9B1393079BB8F1000F14BF002707F070
:1039BC00010701330AFB10485FFA88F807930446A5
:1039CC000D46C7E7B81C48F1000100F02BF9049B29
:1039DC0083428CBF00200120B9EB00006AF1000289
:1039EC00CDE9100200273E46A8E7109B119A013B37
:1039FC0042F1FF32CDE9103201278AE7B9F13E0FCF
:103A0C00F0D84FF0FF33A9F1200003FA09F203FAC2
:103A1C0000F0C9F1200123FA01F102430A4303FA31
:103A2C0009F327EA030728EA020857EA08070CBF3C
:103A3C00012700276DE700FB02FCA1FB00120133FC
:103A4C0062448C4275EB020CF5D2049ADDF828B076
:103A5C001344259A1344012BB8BF01239B45A8BFDF
:103A6C009B4671E70A21002201230846E9E70AFB7D
:103A7C0003F0A2FB0A2301310344944275EB0300CB
:103A8C00F5D2594510DDBBF1000F02D154EA050304
:103A9C000AD00123069372E70A2200230121ECE7E6
:103AAC00CCFBFFFFCDCCCCCC002E2FD04FF00A0A94
:103ABC00129B13990D931846FFF74EFE0D9B0C911C
:103ACC000AFB00F29A42814620D1DDE91001FFF792
:103ADC0043FE0E900D9120462946FFF73DFE0D9BAF
:103AEC000E9A1092CDE911390C9B1393079BB8F1E8
:103AFC00000F14BF002707F0010701330AFB104821
:103B0C005FFA88F8079304460D46D1E7DDF810906C
:103B1C00079B9944002F5DD0B8F1050F5AD114F0D2
:103B2C0001034DD1069A32B9DDE912239D4208BF3B
:103B3C00944262D0069B18194FF00A0445F100011B
:103B4C00002201262546A04271EB020758D2E3B1B0
:103B5C00B3451ADA0B9B63B1259ADDF828B006EB56
:103B6C000903134423EAE3739B45A8BF9B465E45B8
:103B7C000BDD05304FF00A024FF0000341F100015C
:103B8C00FCF78EFB09F10109013E5E45A8BF5E46BC
:103B9C0037B20FFA89F9059B09FA86F607F1050881
:103BAC00013E98444FF00009B94530DB059B3B447E
:103BBC0000225A71059B1A461E60099B1371FEE583
:103BCC00069B2BB9DDE912239D4208BF944209D014
:103BDC000123B0E7069B53B9DDE912239D4208BFD0
:103BEC00944204D1089B002BF2D1002EF0D0B8F1F6
:103BFC00040F94BF002301239DE74FF00408F1E765
:103C0C0005FB02F7A4FB054201363A449BE70A2266
:103C1C000023FCF745FB303208F8012D09F10109AE
:103C2C00C2E700BF0A4A70B503464FF0CC360020FD
:103C3C004FF0333506FB03F402FB0144A3FB0231C6
:103C4C0021449D4275EB010401D30130F2E770BDB4
:103C5C00CDCCCCCC2DE9F04F1A23354EB0FBF3FA7A
:103C6C0003FB1A0389B004460D4606EB0A1653B93A
:103C7C00D6E90023C1E90023D6E90201C5E9020116
:103C8C0009B0BDE8F08F2B4A02EBC303D3E90089DE
:103C9C0004AB0093D6E902234046494600F058FF96
:103CAC0006AB0093D6E9002383460F4640464946AF
:103CBC0000F04EFFDDE9066216EB0B0652EB07082F
:103CCC004FF0000328BF0123814633B1049B059AB2
:103CDC00013342F10002CDE904322046039100F099
:103CEC00B5F807461A2000FB0AF000F0AFF83F1AAF
:103CFC003246434603990097484600F044FF4FEA8A
:103D0C00141C0D4A640004F01E0352F82C40DC40D5
:103D1C0004F00304241841F10001C5E90041DDE978
:103D2C00042300973046414600F02DFFA6E700BF64
:103D3C00B0530008E05200083C5800082DE9F04F41
:103D4C001A27DFF8E4A000F11905B5FBF7F56F436E
:103D5C003A1A4FEA051B89B004460E460AEB0515C4
:103D6C000AD1D5E90023C1E90023D5E90201C6E94E
:103D7C00020109B0BDE8F08F2C4B03EBC203D3E971
:103D8C00008904AB0093D5E902234046494600F074
:103D9C00DFFE5AF80B206B68013ACDE9020106A947
:103DAC0063F1000300914046494600F0D1FEDDE985
:103DBC0006528A4602996D18039952EB01084FF08E
:103DCC00000328BF0123814633B1049B059A0133BC
:103DDC0042F10002CDE90432384600F037F80746CC
:103DEC00204600F033F83F1A2A46434600974846CF
:103DFC00514600F0C8FE4FEA141C0D4A640004F052
:103E0C001E0352F82C40DC4004F003040134241847
:103E1C0041F10001C6E90041DDE904230097284681
:103E2C00414600F0B0FEA2E780540008E0520008C2
:103E3C0090580008014B5843800C704741340100E6
:103E4C00014B5843000D7047FB2E0B00024B58439F
:103E5C00C00C0130704700BF4F931200704700EB4D
:103E6C00C100408840087047F8B50346FFF7F7FFDC
:103E7C00B0FA80F0CA000C468DB2C0F11F00171DBD
:103E8C00063203EB800CDCF8106056B9012101FA04
:103E9C0000F0D9680143D960CCF81040DD539D5235
:103EAC00F8BDF1000431585AD85303EBC0009E52B0
:103EBC00C5805D52F4E7043A2DE9F041CC1D114464
:103ECC004FF0000824F0070421F007010E1B0460DA
:103EDC00414604F11000F708C4F80C80B7FA87F2D9
:103EEC00A760C2F12405C2F12002AD009200073593
:103EFC0000F076FEA4F800802046ED086B0004EB81
:103F0C00C50243F0010363807B1B59005180A21949
:103F1C0024F835502946A2F80280A35304EBC703BA
:103F2C005A8842F001025A80BDE8F041FFF79CBF6D
:103F3C00002070470FB407B504A951F8040B019188
:103F4C00FCF780FB03B05DF804EB04B070477047DE
:103F5C0008B5FDF7D1FE002008BD012801D1EFF313
:103F6C000583FDF78DBF01460068FFF7F6BF002102
:103F7C000120FFF7F2BF61B662B680F31188BFF380
:103F8C006F8F704772B6002383F31188BFF36F8F66
:103F9C00BFF34F8F30BF62B6BFF36F8F70472028CF
:103FAC0009D9B0F1004F08D80138B0FA80F0C0F14F
:103FBC001F0040007047082070473E20704708B52E
:103FCC00FCF7E0FF002008BD08B506220121002007
:103FDC00FDF726F8002206201146FCF7D1FD012141
:103FEC0007220846FDF71CF8002207201146FCF7B3
:103FFC00C7FD082201210220FDF712F8002208203B
:10400C001146FCF7BDFD092201210320FDF708F83C
:10401C00002209201146FCF7B3FD0A2201210420DD
:10402C00FCF7FEFF00220A201146FCF7A9FD052132
:10403C0017220846FCF7F4FF002217201146FCF764
:10404C009FFD282206210A20FCF7EAFF00222820E7
:10405C001146FCF795FD002008BD1F2809DC4FF028
:10406C00B0410122D1F88030824023EA0203C1F82A
:10407C008030704703292ED8DFE801F0020F16229A
:10408C004FF0B04301221968824021EA0201196005
:10409C00596821EA02025A60704701224FF0B0437E
:1040AC00824019681143F2E74FF0B043012259687E
:1040BC00824011435960196821EA02021A60704764
:1040CC00012303FA00F04FF0B0431A6802431A6060
:1040DC005A681043586070470B6882B0A3F1D40241
:1040EC00202A12D803F1B043486803F511331A683B
:1040FC00024300201A600B6803F1B04303F511333F
:10410C001B680193019B02B070476FF08500FAE7C2
:10411C000B68A3F1D402202A0AD803F1B0434968F2
:10412C00002003F511331A6822EA01021A60704765
:10413C006FF08500704710B50A680A2A24D840F23F
:10414C003273D340DB071FD54A68D3B2C2F3423473
:10415C00C2F3042203F1B04304FA02F203F5113363
:10416C00186820EA02021A604968CBB2C1F3024215
:10417C00C1F3042103F1B0438A4003F511331868ED
:10418C00024300201A6010BD6FF08500FBE7436806
:10419C0000205B681B690B60704743685B6858695B
:1041AC0042400A40424000205A6170474368002058
:1041BC005B68996170474368090400205B689961EA
:1041CC007047436800205A6853694B4053617047ED
:1041DC0010B503699868F8B1884219D1DC68086891
:1041EC00A142986000D1D860002008602AB19A687A
:1041FC000A60DA68996002B9D960002010E0814247
:10420C0006D108682060D8688142EDD1DC60EBE70C
:10421C00044600680028F2D1002AE8D16FF015009E
:10422C0010BD2DE9F04144680120C2F38016C2F3A1
:10423C00C11C676888408E4002F0300527EA0007F1
:10424C00C2F34122202D46EA070600FA01F7666008
:10425C0007EB470ED4F8088007FB0CFC07FB02F2B7
:10426C006FEA0E0628EA0E084CEA080CC4F808C0DF
:10427C00D4F80CC02CEA0E0C42EA0C02E2600CD111
:10428C00072912DC07FA01F2206A8A40C2EB0211FC
:10429C005A4320EA01010A43226223682D091E4079
:1042AC007D4335432560BDE8F081020A616A5243C3
:1042BC005243C2EB02105A4321EA00010A436262E4
:1042CC00EBE738B5044690030D46134617D5910716
:1042DC000ED55A072ED55022D8060BD542F40072B3
:1042EC0019031AD5616801234968AB408B610DE055
:1042FC001022F1E79906F3D542F48062F0E7DA0375
:10430C0013D5D80613D4C3F340139A026068002364
:10431C002946FFF786FF002038BD5B03F6D5012147
:10432C002046A940FFF747FFF0E73022EEE74FF4B5
:10433C000072EBE76FF08500EEE70B4670B589680D
:10434C0021B101255E680C68854001B970BD8A6891
:10435C002A4002D04B68304698471CB1236821464E
:10436C001C46F2E72346FAE7F8B51F4604464068B8
:10437C000E461546FFF755FF112F07D101212B05CE
:10438C0001FA06F104D563685B6899610020F8BDF9
:10439C002046FFF710FFF9E730B503681360057985
:1043AC00046804EBC504A34202D36FF0010030BDD6
:1043BC005C798C4201D00833F0E70020F7E74368C2
:1043CC00C1F34B1001F01F011B68C05801238B4037
:1043DC0003424FF0000014BF0123002313707047F9
:1043EC0010B54368C1F34B1001F01F011A6801238B
:1043FC0084588B4023438350002010BD10B5436874
:10440C00C1F34B14012201F01F0118688A40235894
:10441C0023EA02032350002010BD38B504460D4694
:10442C00FFF7DEFF29462046FFF7E8FF002038BDE6
:10443C00B0F5805F07D0B0F1805F09D1002914BFBF
:10444C00012002207047002914BF0320042070476C
:10445C00002914BF02200320704743681B68D869E9
:10446C00DA69C0F3C000D107DA6948BF40F0020036
:10447C009207DA6948BF40F004005107DA6948BF77
:10448C0040F02000D20504D54FF4807240F00800B3
:10449C001A62C10701D508221A62820701D50122CE
:1044AC001A62410701D502221A62820601D5042242
:1044BC001A62704743681A6852E8003F43F04003A1
:1044CC0042E800310029F7D1704743681A6852E876
:1044DC00003F23F0400342E800310029F7D1704738
:1044EC0043681A6852E8003F43F0200342E8003169
:1044FC000029F7D1704743681A6852E8003F23F04F
:10450C00200342E800310029F7D1704743681B684B
:10451C00D869C0F340107047012070470369C3E9A4
:10452C0002127047026993680BB1D1681847704743
:10453C000022262008B51146FCF722FB2620BDE8F8
:10454C000840FCF70FBB0022272008B51146FCF7EA
:10455C0017FB2720BDE80840FCF704BB37B5026900
:10456C000C46436810681D68D9688368DB687BB1AA
:10457C0001AA984700280BDB2B6823F400432B601F
:10458C0001992CB101EB5401B1FBF4F189B2E96052
:10459C0003B030BD43681B68D869C0F38010704706
:1045AC0043681B68D86910F0800002D01868C0F30B
:1045BC008010704710B5026904460B4652681268A9
:1045CC000A6042681268126802F4C062B2F5806F29
:1045DC0033D0A2F5C060424242411A71626812683F
:1045EC00526802F44052B2F5805F28D0B2F5405FB9
:1045FC0027D0002A0CBF012203225A71626812686C
:10460C001068116800F0102001F4C061FFF710FF72
:10461C009871626800201268926802F44072A2F5E8
:10462C0040714A424A41DA7161680968896811F43B
:10463C00804F18BF0322DA7110BD0222CDE7002291
:10464C00DBE70222D9E7F8B543680D461B6818680A
:10465C00196800F0102001F4C061FFF7E9FE04288E
:10466C001BD0D86910F0800016D0EFF31186102102
:10467C0081F31288BFF36F8F0021CCB2A242204687
:10468C0006DDDF6901313F0602D5285D9862F4E74B
:10469C0086F31188BFF36F8FF8BD6FF08500FBE7D1
:1046AC0010B5436810201B68DA691206FCD5EFF3CD
:1046BC00118280F31288BFF36F8FDC69240604D457
:1046CC0082F31188BFF36F8FEEE7996282F3118842
:1046DC00BFF36F8F10BD43681B68DA69910602D572
:1046EC001A68920607D4D86910F0400004D01868F4
:1046FC00C0F38010704701207047F8B543680D4631
:10470C001B681868196800F0102001F4C061FFF7ED
:10471C008FFE042810D000240826E1B28A420846F5
:10472C000CDDDF69BF0609D5586A6854D9690907D9
:10473C0000D51E620134F0E76FF08500F8BD4368C8
:10474C001B68DA69100701D508221A62DA69920629
:10475C0003D55B6A00200B7070474FF0FF30704739
:10476C00704740B1C368587810F001001EBF18782C
:10477C00B0FA80F040097047EFF31183102383F3F4
:10478C001288BFF36F8FFEE708B5FFF7F5FF10B582
:10479C00D0E9003433B90020E268537843F00103C8
:1047AC00537010BD204698470028F4D00028E368C9
:1047BC00B8BF4042FF28A8BFFF201870ECE700F0FC
:1047CC000FBA00F0FFB97047102408B5EFF311834E
:1047DC0084F31288BFF36F8FFFF7D4FBF6E7FDF776
:1047EC00DBBED0E9003213605A600023C0E900330D
:1047FC00704708B5FFF7F5FF437B23F002034373C3
:10480C000023836008BD38B504460D46FDF792FDC4
:10481C00637B43F002036373E5B1A5602B689D4293
:10482C0009D16B68C4E900531C606C6012E06A68C3
:10483C009A42F6D01B68002BF3D094F90E2093F912
:10484C000E108A42F3D09142F1DD5A68C4E900326D
:10485C0014605C6038BD10B5EFF31184102383F342
:10486C001288BFF36F8FFDF77DFD84F31188BFF3C2
:10487C006F8F10BD38B50446EFF31185102383F309
:10488C001288BFF36F8F437B13F0280F0BD1836813
:10489C000BB1FFF7AEFF637B51B903F0FB0320466E
:1048AC006373FDF75FFD85F31188BFF36F8F38BD20
:1048BC0003F0EB03F3E701211838FFF7DBBF38B542
:1048CC00EFF31185102383F31288BFF36F8F046805
:1048DC00A0420DD034B12046FFF78BFF04F1180035
:1048EC0000F02AF885F31188BFF36F8F204638BD8E
:1048FC000024F7E7EFF31181102282F31288BFF343
:10490C006F8F027BD2070CD581F31188BFF36F8FA9
:10491C00002383F31188BFF36F8F0423184602DF43
:10492C007047437B1B0704D581F31188BFF36F8F4E
:10493C0070470122FDF74ABD10B5EFF31184102228
:10494C0082F31288BFF36F8F03683BB1FDF75AFFF8
:10495C00002084F31188BFF36F8F10BD6FF015002A
:10496C00F7E710B400F10C04C0E9034410BCFFF7E6
:10497C00A2BA10B5024601448A42134603D01C78F1
:10498C000132002CF8D1181A10BD2DE9F047C3F1F3
:10499C003709074688465FFA89F903F01F05164662
:1049AC004FF0000A384641462A465346FBF778FC3E
:1049BC00D4B2092C88BF4C443A46434688BFE4B273
:1049CC00AA4204F1300473EB0A0306F8014B0746C4
:1049DC008846E7D23046BDE8F0872DE9F04F87B026
:1049EC000618994602AB41EB01040093154630467C
:1049FC00D2E900232146DDF844B000F0A9F804AB5D
:104A0C000093D5E90223074688463046214600F03C
:104A1C009FF8DDE90263841951EB0306049BD5E989
:104A2C0000014FF0000228BF0122D218059B43F170
:104A3C000003381848EB0101B84271EB0801D5E9C5
:104A4C0002C134BF0120002014EB0C0C46EB010119
:104A5C0010EB0C0041F10001A04271EB060C34BFCD
:104A6C004FF0010C4FF0000CCDE90423A9F1410AE1
:104A7C001CEB020243F10003CDF800A000F083F818
:104A8C00109BC3E90001129B012BDDE9042329D102
:104A9C00D5E90201D5E900C5201A66EB010167458D
:104AAC0078EB050534BF01250025401B61F10001A1
:104ABC00844276EB010534BF01250025521BCDF84D
:104ACC0000A063F1000300F05EF8DDE90423CBE9FC
:104ADC000001CDF800A02046314600F054F807B094
:104AEC00BDE8F08F17EB070E48EB080C201946EBCE
:104AFC000601BE457CEB080834BF01270027C71907
:104B0C0041F10008D5E9000186457CEB010CD5E9A3
:104B1C00021534BF01200020381A68F1000C401A2D
:104B2C006CEB050192185B41A74278EB060534BF8C
:104B3C0001250025521943F10003874278EB010847
:104B4C0034BF01250025521BA9F140050095B8E79B
:104B5C00F0B50F460446A0FB0201A7FB025249190F
:104B6C00A3FB044542F10002A7FB0373611845F156
:104B7C000004D219059E43F10003121943F10003FE
:104B8C00C6E90023F0BDF0B5059CC4F14007C4F1A3
:104B9C00200602FA06F6A4F12005BB4022FA05F520
:104BAC003343C4F120062B4301FA06F6A4F1200589
:104BBC00E04021FA05F53043BA402843E140104368
:104BCC001943F0BD0A44914200F1FF3300D1704704
:104BDC0010B511F8014B03F8014F9142F9D110BDFA
:104BEC0002440346934200D1704703F8011BF9E7D6
:0C4BFC00014800687047000070020024AF
:084C0800D8B6FF7F0100000097
:104C1000B506000800000000AD110008C04C0008F7
:104C20005D3F0008000000005D2A00080000000051
:104C300000000000D44C0008D91300089C4D000867
:104C4000D9130008B04D0008D9130008744D0008AE
:104C5000D53F0008E84C0008D9130008C44D0008EF
:104C6000D9130008884D0008D9130008604D0008CA
:104C7000D91300084C4D0008D9130008384D00081E
:104C8000D9130008244D0008D9130008104D00085E
:104C9000D9130008FC4C0008E9170008EC4D000887
:104CA000E9170008D84D000889130008000000002B
:104CB000411B000800000000B90F000800000000C0
:104CC0006859000800000000C8550008760000245C
:104CD000000000000F5A0008245700082857000859
:104CE0008E000024000000004A5900080000000067
:104CF0000000000074000024900200247559000890
:104D0000E4550008C0560008780000241003002471
:104D100083590008F8550008C05600087A0000249E
:104D200020030024915900080C560008C0560008C2
:104D30007C000024300300249F59000820560008FE
:104D4000C05600087E00002440030024AD5900082E
:104D500034560008C0560008800000245003002488
:104D6000BB59000848560008C056000882000024BD
:104D700060030024C95900085C560008C0560008AA
:104D80008400002470030024D759000870560008DE
:104D9000C05600088600002480030024E55900085E
:104DA00084560008C05600088800002490030024A0
:104DB000F359000898560008C05600088A000024DD
:104DC000A0030024015A0008AC560008C056000891
:104DD0008C000024B0030024205A00083857000833
:104DE000D85700089000002418000024305A00080A
:104DF00088570008D857000892000024300000248B
:104E0000000000007B3F0008000000007B3F00081E
:104E1000000000007B3F0008000000007B3F00080E
:104E2000000000007B3F0008000000007B3F0008FE
:104E300048590008DD0F000846590008DD0F00083A
:104E400044590008DD0F000842590008DD0F000832
:104E500040590008DD0F0008000000007B3F0008FB
:104E6000000000007B3F0008000000007B3F0008BE
:104E7000000000007B3F0008000000007B3F0008AE
:104E8000000000007B3F0008000000007B3F00089E
:104E9000000000007B3F0008000000007B3F00088E
:104EA000000000007B3F0008000000007B3F00087E
:104EB000000000007B3F00083E590008DD0F00089D
:104EC000000000007B3F0008000000007B3F00085E
:104ED000000000007B3F0008000000007B3F00084E
:104EE000000000007B3F0008000000007B3F00083E
:104EF000000000007B3F0008000000007B3F00082E
:104F0000000000007B3F0008000000007B3F00081D
:104F1000000000007B3F0008000000007B3F00080D
:104F2000000000007B3F0008000000007B3F0008FD
:104F3000EC4D000831450008D84D00083145000807
:104F40003C590008DD0F0008000000007B3F00080E
:104F5000000000007B3F0008000000007B3F0008CD
:104F6000000000007B3F0008000000007B3F0008BD
:104F7000000000007B3F0008000000007B3F0008AD
:104F8000000000007B3F0008000000007B3F00089D
:104F9000000000007B3F0008000000007B3F00088D
:104FA000000000007B3F0008000000007B3F00087D
:104FB000000000007B3F0008000000007B3F00086D
:104FC000000000007B3F0008000000007B3F00085D
:104FD000000000007B3F0008000000007B3F00084D
:104FE000000000007B3F0008000000007B3F00083D
:104FF000000000007B3F0008000000007B3F00082D
:10500000000000007B3F0008000000007B3F00081C
:10501000000000007B3F0008000000007B3F00080C
:10502000000000007B3F0008000000007B3F0008FC
:10503000000000007B3F0008000000007B3F0008EC
:10504000000000007B3F0008000000007B3F0008DC
:10505000000000007B3F0008000000007B3F0008CC
:10506000000000007B3F0008000000007B3F0008BC
:10507000000000007B3F0008000000007B3F0008AC
:10508000000000007B3F0008000000007B3F00089C
:10509000000000007B3F0008000000007B3F00088C
:1050A000000000007B3F0008000000007B3F00087C
:1050B000000000007B3F0008000000007B3F00086C
:1050C000000000007B3F0008000000007B3F00085C
:1050D000000000007B3F0008000000007B3F00084C
:1050E000000000007B3F0008000000007B3F00083C
:1050F000000000007B3F0008000000007B3F00082C
:10510000000000007B3F0008000000007B3F00081B
:10511000000000007B3F0008000000007B3F00080B
:10512000000000007B3F0008000000007B3F0008FB
:10513000000000007B3F0008000000007B3F0008EB
:10514000000000007B3F0008000000007B3F0008DB
:10515000000000007B3F0008000000007B3F0008CB
:10516000000000007B3F0008000000007B3F0008BB
:10517000000000007B3F0008000000007B3F0008AB
:10518000000000007B3F0008000000007B3F00089B
:10519000000000007B3F0008000000007B3F00088B
:1051A000000000007B3F0008000000007B3F00087B
:1051B000000000007B3F0008000000007B3F00086B
:1051C000000000007B3F0008000000007B3F00085B
:1051D000000000007B3F0008000000007B3F00084B
:1051E000000000007B3F0008000000007B3F00083B
:1051F000000000007B3F0008000000007B3F00082B
:10520000000000007B3F0008000000007B3F00081A
:10521000000000007B3F0008000000007B3F00080A
:10522000000000007B3F0008000000007B3F0008FA
:10523000000000007B3F0008000000007B3F0008EA
:10524000000000007B3F0008000000007B3F0008DA
:10525000000000007B3F0008000000007B3F0008CA
:10526000000000007B3F0008000000007B3F0008BA
:10527000000000007B3F0008000000007B3F0008AA
:10528000000000007B3F0008000000007B3F00089A
:10529000000000007B3F0008000000007B3F00088A
:1052A000000000007B3F0008000000007B3F00087A
:1052B000000000007B3F0008000000007B3F00086A
:1052C000000000007B3F0008000000007B3F00085A
:0852D000000000007B3F000814
:1052D800F4000000020000000100000000000000CF
:1052E8000500000000000000190000000000000098
:1052F8007D000000000000007102000000000000B6
:10530800350C000000000000093D0000000000000E
:105318002D31010000000000E1F50500000000004B
:1053280065CD1D0000000000F90295000000000096
:10533800DD0EE90200000000514A8D0E0000000059
:105348009573C24800000000E941CC6B01000000E1
:105358008D49FD1A07000000C16FF2862300000086
:10536800C52EBCA2B1000000D9E9AC2D780300001D
:105378003D9160E45811000031D6E275BC5600003A
:10538800F52E6E4DAEB10100C9EA26836778080094
:10539800ED95C28F055A2A00A1EDCCCE1BC2D300D1
:1053A80025A4000A8BCA22040000000000000000A7
:1053B80000000000000000100000000000000000D5
:1053C800B9340332B7F4AD1410DB1AB30892540E93
:1053D8000D307D951447BA1A66088F4D26ADC66DF7
:1053E800F598BF85E2B74511CA96853D92BD1DEB7C
:1053F800FCA11860DCEF52163C92AE220BB8C1B487
:10540800839D2D5B0562DA1C304C7E8F4E8BB25B20
:1054180016F4529F8B56A512FBD4827643ED8AF080
:105428008FE7F9311565191850F19BD94A13EEB475
:10543800284CF0A686C1251F035FC270CB9E491673
:10544800E642889C44EB2014B0650836AD6EA5850D
:1054580085F0CA14E2FD031A0B899979D5B13D0983
:10546800D8DA973A35EBCF10AC363F5E73BB38CFFE
:105478003E6752FA44AFBA15010000000000000070
:105488000000000000000020345065C05FC9A6522B
:10549800BB13CBAEC440C21806C8DF7100D5A87CC8
:1054A800F56F0FDA58FC27136E4756357D242065B3
:1054B80002C7E768E48CA41DE9E60268D7CD396124
:1054C8007977FCC2405BEF16798CDE43FFA751F970
:1054D80091F3B278F5BDBE11E857E9D6E8BEE87B8E
:1054E800B054AC8F848D751BEA23A499E9F9D38B4A
:1054F800B7A3714061DA3E15CEE33ECB73F9480895
:105508008C97B427D51B7010A2BFEFB9EB85321565
:105518004DB44DB49BBB6F1996B6076CF8E7EEAD6A
:1055280036D9B4F59135AE13222218AF4E6A684DBC
:1055380091DAAA3D4F40741E9FBD9EE006A1C09817
:1055480057C2A7FDA40E90170E7D497173E3208FF3
:10555800B220D87605143B12853D7434811343B0CC
:10556800AD297A5F27F4351C030000007855000840
:10557800000000080A59000828000207000000245B
:105588001059000822000B110000F01F15590008DF
:10559800240004111C5900080000009000000010AD
:1055A800000000022C5900080000007000000010E4
:1055B80000000002000000240000000000000B06AC
:1055C800E54000081D41000800000000F91000082F
:1055D800000000000000000043410008FFFF000039
:1055E800002802580A000000E00000000004000043
:1055F800FFFF00000024025809000000E00000003E
:1056080000020000FFFF0000002002580800000010
:10561800E000000000010000FFFF0000001C02582D
:1056280007000000E000000080000000FFFF00000D
:105638000018025806000000E000000040000000CA
:10564800FFFF00000014025805000000E000000001
:1056580020000000FFFF00000010025804000000B6
:10566800E000000010000000FFFF0000000C0258DE
:1056780003000000E000000008000000FFFF000039
:105688000008025802000000E000000004000000CA
:10569800FFFF00000004025801000000E0000000C5
:1056A80002000000FFFF0000000002580000000098
:1056B800E000000001000000CF4200089B41000804
:1056C800A7410008B9410008C3410008CF410008BC
:1056D80009140008DD41000800000000C44D00085E
:1056E800B04D00089C4D0008884D0008744D000816
:1056F800604D00084C4D0008384D0008244D000846
:10570800104D0008FC4C00080000000000000000DC
:1057180000000000000000000000000000440258E3
:10572800CB430008ED43000809440008274400085B
:1057380000480040D44C00081212000060570008CE
:105748000100000000000000000000000000000050
:105758006857000853450008E800000000000400EE
:105768007057000801000000785700080200000088
:1057780007070000000200002707000000000000E3
:1057880000440040D44C000811120000B057000833
:1057980001000000000001000000000000000000FF
:1057A800B85700083D450008E80000000000020066
:1057B800C057000801000000C85700080200000098
:1057C800A706000000020000C70600000000000055
:1057D8004B470008AD460008674400086D190008EB
:1057E800C14500085346000807470008C14400089F
:1057F800D7440008AD450008ED44000803450008FB
:10580800A145000819450008A51500082D1600082F
:10581800E34600082545000829450008104C000803
:10582800104C0008B04C0008B84C0008C04C0008E8
:10583800C04C00080000000000000000000000004C
:10584800000000000000004095596959555554550D
:1058580015555556040515411054554045515544A4
:10586800404550445055554500400040400444963A
:105878006555565545404554514115405591555526
:1058880055554051050100005445545445550504EB
:105898000010041014044000000001405555154143
:1058A800540400004400010000000040410000448E
:1058B80050444550540055555455655100400040DA
:1058C80001000001000501001154515154555505BE
:1058D80000000000000000000000000000100000B0
:1058E80000304920616D206C697665004572726FE1
:1058F80072004D6573736167653A20256868782082
:105908000A00464C415348005352414D00535953E5
:1059180054454D006D656D6F7279403930303030C7
:10592800303030006D656D6F72794037303030300F
:10593800303030000A0605050401030102010101A7
:105948000001696E746572727570742D636F6E7480
:10595800726F6C6C657240353830303030303000E2
:1059680072636340353830323434303000677069E0
:105978006F403538303232383030006770696F40E8
:105988003538303232343030006770696F4035381E
:10599800303232303030006770696F40353830321D
:1059A80031433030006770696F40353830323138F4
:1059B8003030006770696F403538303231343030FC
:1059C800006770696F4035383032313030300067E9
:1059D80070696F4035383032304330300067706955
:1059E8006F403538303230383030006770696F407A
:1059F8003538303230343030006770696F403538B0
:105A08003032303030300072657365742D636F6EDC
:105A180074726F6C6C65720073657269616C403486
:105A2800303030343830300073657269616C40341E
:105A380030303034343030006D61696E002A2A2AE3
:105A480020426F6F74696E67205A6570687972209A
:105A58004F53206275696C642076332E372E3020C0
:105A68002A2A2A0A00696E66006E616E00286E7521
:045A78006C6C290029
:105A7C003D3F00083107000800000000CB3F000844
:105A8C0000000000000000000000000028000024BE
:105A9C00000000000000000000C201000001030033
:105AAC000000000040000024000000000000000086
:105ABC00A0860100020303000090D0034C000024D8
:105ACC004C000024FF00FF00FF00FF00FF00FF0060
:105ADC00FF00FF00FF00FF00FF00FF00FF00FF00C2
:045AEC00FF00FF00B8
:105AF00000000000000000000000000000000000A6
:105B00000000000000000000000000000000000095
:105B10009400002494000024190000000A000000F2
:105B200000120024FA1200240012002400120024A3
:085B300000000000000000006D
:045B380015E015E07F
:0400000508000A4D98
:00000001FF
